{
	"Coin Box/CoinBox.sol": {
		"CoinBox": {
			"abi": [
				{
					"inputs": [
						{
							"internalType": "uint256",
							"name": "_unlockTime",
							"type": "uint256"
						}
					],
					"stateMutability": "nonpayable",
					"type": "constructor"
				},
				{
					"inputs": [],
					"name": "balance",
					"outputs": [
						{
							"internalType": "uint256",
							"name": "",
							"type": "uint256"
						}
					],
					"stateMutability": "view",
					"type": "function"
				},
				{
					"inputs": [],
					"name": "deposit",
					"outputs": [],
					"stateMutability": "payable",
					"type": "function"
				},
				{
					"inputs": [],
					"name": "getTimeLeft",
					"outputs": [
						{
							"internalType": "uint256",
							"name": "",
							"type": "uint256"
						}
					],
					"stateMutability": "view",
					"type": "function"
				},
				{
					"inputs": [],
					"name": "owner",
					"outputs": [
						{
							"internalType": "address",
							"name": "",
							"type": "address"
						}
					],
					"stateMutability": "view",
					"type": "function"
				},
				{
					"inputs": [],
					"name": "unlockTime",
					"outputs": [
						{
							"internalType": "uint256",
							"name": "",
							"type": "uint256"
						}
					],
					"stateMutability": "view",
					"type": "function"
				},
				{
					"inputs": [],
					"name": "withdraw",
					"outputs": [],
					"stateMutability": "nonpayable",
					"type": "function"
				}
			],
			"devdoc": {
				"kind": "dev",
				"methods": {},
				"version": 1
			},
			"evm": {
				"assembly": "    /* \"Coin Box/CoinBox.sol\":59:1037  contract CoinBox {... */\n  mstore(0x40, 0x80)\n    /* \"Coin Box/CoinBox.sol\":173:360  constructor (uint256 _unlockTime){... */\n  callvalue\n  dup1\n  iszero\n  tag_1\n  jumpi\n  0x00\n  dup1\n  revert\ntag_1:\n  pop\n  mload(0x40)\n  sub(codesize, bytecodeSize)\n  dup1\n  bytecodeSize\n  dup4\n  codecopy\n  dup2\n  dup2\n  add\n  0x40\n  mstore\n  dup2\n  add\n  swap1\n  tag_2\n  swap2\n  swap1\n  tag_3\n  jump\t// in\ntag_2:\n    /* \"Coin Box/CoinBox.sol\":239:254  block.timestamp */\n  timestamp\n    /* \"Coin Box/CoinBox.sol\":225:236  _unlockTime */\n  dup2\n    /* \"Coin Box/CoinBox.sol\":225:254  _unlockTime > block.timestamp */\n  gt\n    /* \"Coin Box/CoinBox.sol\":217:288  require(_unlockTime > block.timestamp, \"Unlock time must be in future\") */\n  tag_6\n  jumpi\n  mload(0x40)\n  0x08c379a000000000000000000000000000000000000000000000000000000000\n  dup2\n  mstore\n  0x04\n  add\n  tag_7\n  swap1\n  tag_8\n  jump\t// in\ntag_7:\n  mload(0x40)\n  dup1\n  swap2\n  sub\n  swap1\n  revert\ntag_6:\n    /* \"Coin Box/CoinBox.sol\":307:317  msg.sender */\n  caller\n    /* \"Coin Box/CoinBox.sol\":299:304  owner */\n  0x00\n  dup1\n    /* \"Coin Box/CoinBox.sol\":299:317  owner = msg.sender */\n  0x0100\n  exp\n  dup2\n  sload\n  dup2\n  0xffffffffffffffffffffffffffffffffffffffff\n  mul\n  not\n  and\n  swap1\n  dup4\n  0xffffffffffffffffffffffffffffffffffffffff\n  and\n  mul\n  or\n  swap1\n  sstore\n  pop\n    /* \"Coin Box/CoinBox.sol\":341:352  _unlockTime */\n  dup1\n    /* \"Coin Box/CoinBox.sol\":328:338  unlockTime */\n  0x01\n    /* \"Coin Box/CoinBox.sol\":328:352  unlockTime = _unlockTime */\n  dup2\n  swap1\n  sstore\n  pop\n    /* \"Coin Box/CoinBox.sol\":173:360  constructor (uint256 _unlockTime){... */\n  pop\n    /* \"Coin Box/CoinBox.sol\":59:1037  contract CoinBox {... */\n  jump(tag_9)\n    /* \"#utility.yul\":88:205   */\ntag_11:\n    /* \"#utility.yul\":197:198   */\n  0x00\n    /* \"#utility.yul\":194:195   */\n  dup1\n    /* \"#utility.yul\":187:199   */\n  revert\n    /* \"#utility.yul\":334:411   */\ntag_13:\n    /* \"#utility.yul\":371:378   */\n  0x00\n    /* \"#utility.yul\":400:405   */\n  dup2\n    /* \"#utility.yul\":389:405   */\n  swap1\n  pop\n    /* \"#utility.yul\":334:411   */\n  swap2\n  swap1\n  pop\n  jump\t// out\n    /* \"#utility.yul\":417:539   */\ntag_14:\n    /* \"#utility.yul\":490:514   */\n  tag_25\n    /* \"#utility.yul\":508:513   */\n  dup2\n    /* \"#utility.yul\":490:514   */\n  tag_13\n  jump\t// in\ntag_25:\n    /* \"#utility.yul\":483:488   */\n  dup2\n    /* \"#utility.yul\":480:515   */\n  eq\n    /* \"#utility.yul\":470:533   */\n  tag_26\n  jumpi\n    /* \"#utility.yul\":529:530   */\n  0x00\n    /* \"#utility.yul\":526:527   */\n  dup1\n    /* \"#utility.yul\":519:531   */\n  revert\n    /* \"#utility.yul\":470:533   */\ntag_26:\n    /* \"#utility.yul\":417:539   */\n  pop\n  jump\t// out\n    /* \"#utility.yul\":545:688   */\ntag_15:\n    /* \"#utility.yul\":602:607   */\n  0x00\n    /* \"#utility.yul\":633:639   */\n  dup2\n    /* \"#utility.yul\":627:640   */\n  mload\n    /* \"#utility.yul\":618:640   */\n  swap1\n  pop\n    /* \"#utility.yul\":649:682   */\n  tag_28\n    /* \"#utility.yul\":676:681   */\n  dup2\n    /* \"#utility.yul\":649:682   */\n  tag_14\n  jump\t// in\ntag_28:\n    /* \"#utility.yul\":545:688   */\n  swap3\n  swap2\n  pop\n  pop\n  jump\t// out\n    /* \"#utility.yul\":694:1045   */\ntag_3:\n    /* \"#utility.yul\":764:770   */\n  0x00\n    /* \"#utility.yul\":813:815   */\n  0x20\n    /* \"#utility.yul\":801:810   */\n  dup3\n    /* \"#utility.yul\":792:799   */\n  dup5\n    /* \"#utility.yul\":788:811   */\n  sub\n    /* \"#utility.yul\":784:816   */\n  slt\n    /* \"#utility.yul\":781:900   */\n  iszero\n  tag_30\n  jumpi\n    /* \"#utility.yul\":819:898   */\n  tag_31\n  tag_11\n  jump\t// in\ntag_31:\n    /* \"#utility.yul\":781:900   */\ntag_30:\n    /* \"#utility.yul\":939:940   */\n  0x00\n    /* \"#utility.yul\":964:1028   */\n  tag_32\n    /* \"#utility.yul\":1020:1027   */\n  dup5\n    /* \"#utility.yul\":1011:1017   */\n  dup3\n    /* \"#utility.yul\":1000:1009   */\n  dup6\n    /* \"#utility.yul\":996:1018   */\n  add\n    /* \"#utility.yul\":964:1028   */\n  tag_15\n  jump\t// in\ntag_32:\n    /* \"#utility.yul\":954:1028   */\n  swap2\n  pop\n    /* \"#utility.yul\":910:1038   */\n  pop\n    /* \"#utility.yul\":694:1045   */\n  swap3\n  swap2\n  pop\n  pop\n  jump\t// out\n    /* \"#utility.yul\":1051:1220   */\ntag_16:\n    /* \"#utility.yul\":1135:1146   */\n  0x00\n    /* \"#utility.yul\":1169:1175   */\n  dup3\n    /* \"#utility.yul\":1164:1167   */\n  dup3\n    /* \"#utility.yul\":1157:1176   */\n  mstore\n    /* \"#utility.yul\":1209:1213   */\n  0x20\n    /* \"#utility.yul\":1204:1207   */\n  dup3\n    /* \"#utility.yul\":1200:1214   */\n  add\n    /* \"#utility.yul\":1185:1214   */\n  swap1\n  pop\n    /* \"#utility.yul\":1051:1220   */\n  swap3\n  swap2\n  pop\n  pop\n  jump\t// out\n    /* \"#utility.yul\":1226:1405   */\ntag_17:\n    /* \"#utility.yul\":1366:1397   */\n  0x556e6c6f636b2074696d65206d75737420626520696e20667574757265000000\n    /* \"#utility.yul\":1362:1363   */\n  0x00\n    /* \"#utility.yul\":1354:1360   */\n  dup3\n    /* \"#utility.yul\":1350:1364   */\n  add\n    /* \"#utility.yul\":1343:1398   */\n  mstore\n    /* \"#utility.yul\":1226:1405   */\n  pop\n  jump\t// out\n    /* \"#utility.yul\":1411:1777   */\ntag_18:\n    /* \"#utility.yul\":1553:1556   */\n  0x00\n    /* \"#utility.yul\":1574:1641   */\n  tag_36\n    /* \"#utility.yul\":1638:1640   */\n  0x1d\n    /* \"#utility.yul\":1633:1636   */\n  dup4\n    /* \"#utility.yul\":1574:1641   */\n  tag_16\n  jump\t// in\ntag_36:\n    /* \"#utility.yul\":1567:1641   */\n  swap2\n  pop\n    /* \"#utility.yul\":1650:1743   */\n  tag_37\n    /* \"#utility.yul\":1739:1742   */\n  dup3\n    /* \"#utility.yul\":1650:1743   */\n  tag_17\n  jump\t// in\ntag_37:\n    /* \"#utility.yul\":1768:1770   */\n  0x20\n    /* \"#utility.yul\":1763:1766   */\n  dup3\n    /* \"#utility.yul\":1759:1771   */\n  add\n    /* \"#utility.yul\":1752:1771   */\n  swap1\n  pop\n    /* \"#utility.yul\":1411:1777   */\n  swap2\n  swap1\n  pop\n  jump\t// out\n    /* \"#utility.yul\":1783:2202   */\ntag_8:\n    /* \"#utility.yul\":1949:1953   */\n  0x00\n    /* \"#utility.yul\":1987:1989   */\n  0x20\n    /* \"#utility.yul\":1976:1985   */\n  dup3\n    /* \"#utility.yul\":1972:1990   */\n  add\n    /* \"#utility.yul\":1964:1990   */\n  swap1\n  pop\n    /* \"#utility.yul\":2036:2045   */\n  dup2\n    /* \"#utility.yul\":2030:2034   */\n  dup2\n    /* \"#utility.yul\":2026:2046   */\n  sub\n    /* \"#utility.yul\":2022:2023   */\n  0x00\n    /* \"#utility.yul\":2011:2020   */\n  dup4\n    /* \"#utility.yul\":2007:2024   */\n  add\n    /* \"#utility.yul\":2000:2047   */\n  mstore\n    /* \"#utility.yul\":2064:2195   */\n  tag_39\n    /* \"#utility.yul\":2190:2194   */\n  dup2\n    /* \"#utility.yul\":2064:2195   */\n  tag_18\n  jump\t// in\ntag_39:\n    /* \"#utility.yul\":2056:2195   */\n  swap1\n  pop\n    /* \"#utility.yul\":1783:2202   */\n  swap2\n  swap1\n  pop\n  jump\t// out\n    /* \"Coin Box/CoinBox.sol\":59:1037  contract CoinBox {... */\ntag_9:\n  dataSize(sub_0)\n  dup1\n  dataOffset(sub_0)\n  0x00\n  codecopy\n  0x00\n  return\nstop\n\nsub_0: assembly {\n        /* \"Coin Box/CoinBox.sol\":59:1037  contract CoinBox {... */\n      mstore(0x40, 0x80)\n      jumpi(tag_1, lt(calldatasize, 0x04))\n      shr(0xe0, calldataload(0x00))\n      dup1\n      0x251c1aa3\n      eq\n      tag_2\n      jumpi\n      dup1\n      0x3ccfd60b\n      eq\n      tag_3\n      jumpi\n      dup1\n      0x8da5cb5b\n      eq\n      tag_4\n      jumpi\n      dup1\n      0xb69ef8a8\n      eq\n      tag_5\n      jumpi\n      dup1\n      0xc7e284b8\n      eq\n      tag_6\n      jumpi\n      dup1\n      0xd0e30db0\n      eq\n      tag_7\n      jumpi\n    tag_1:\n      0x00\n      dup1\n      revert\n        /* \"Coin Box/CoinBox.sol\":110:135  uint256 public unlockTime */\n    tag_2:\n      callvalue\n      dup1\n      iszero\n      tag_8\n      jumpi\n      0x00\n      dup1\n      revert\n    tag_8:\n      pop\n      tag_9\n      tag_10\n      jump\t// in\n    tag_9:\n      mload(0x40)\n      tag_11\n      swap2\n      swap1\n      tag_12\n      jump\t// in\n    tag_11:\n      mload(0x40)\n      dup1\n      swap2\n      sub\n      swap1\n      return\n        /* \"Coin Box/CoinBox.sol\":525:832  function withdraw () external {... */\n    tag_3:\n      callvalue\n      dup1\n      iszero\n      tag_13\n      jumpi\n      0x00\n      dup1\n      revert\n    tag_13:\n      pop\n      tag_14\n      tag_15\n      jump\t// in\n    tag_14:\n      stop\n        /* \"Coin Box/CoinBox.sol\":83:103  address public owner */\n    tag_4:\n      callvalue\n      dup1\n      iszero\n      tag_16\n      jumpi\n      0x00\n      dup1\n      revert\n    tag_16:\n      pop\n      tag_17\n      tag_18\n      jump\t// in\n    tag_17:\n      mload(0x40)\n      tag_19\n      swap2\n      swap1\n      tag_20\n      jump\t// in\n    tag_19:\n      mload(0x40)\n      dup1\n      swap2\n      sub\n      swap1\n      return\n        /* \"Coin Box/CoinBox.sol\":142:164  uint256 public balance */\n    tag_5:\n      callvalue\n      dup1\n      iszero\n      tag_21\n      jumpi\n      0x00\n      dup1\n      revert\n    tag_21:\n      pop\n      tag_22\n      tag_23\n      jump\t// in\n    tag_22:\n      mload(0x40)\n      tag_24\n      swap2\n      swap1\n      tag_12\n      jump\t// in\n    tag_24:\n      mload(0x40)\n      dup1\n      swap2\n      sub\n      swap1\n      return\n        /* \"Coin Box/CoinBox.sol\":839:1034  function getTimeLeft () external view returns (uint256) {... */\n    tag_6:\n      callvalue\n      dup1\n      iszero\n      tag_25\n      jumpi\n      0x00\n      dup1\n      revert\n    tag_25:\n      pop\n      tag_26\n      tag_27\n      jump\t// in\n    tag_26:\n      mload(0x40)\n      tag_28\n      swap2\n      swap1\n      tag_12\n      jump\t// in\n    tag_28:\n      mload(0x40)\n      dup1\n      swap2\n      sub\n      swap1\n      return\n        /* \"Coin Box/CoinBox.sol\":368:516  function deposit () external payable {... */\n    tag_7:\n      tag_29\n      tag_30\n      jump\t// in\n    tag_29:\n      stop\n        /* \"Coin Box/CoinBox.sol\":110:135  uint256 public unlockTime */\n    tag_10:\n      sload(0x01)\n      dup2\n      jump\t// out\n        /* \"Coin Box/CoinBox.sol\":525:832  function withdraw () external {... */\n    tag_15:\n        /* \"Coin Box/CoinBox.sol\":588:593  owner */\n      0x00\n      dup1\n      sload\n      swap1\n      0x0100\n      exp\n      swap1\n      div\n      0xffffffffffffffffffffffffffffffffffffffff\n      and\n        /* \"Coin Box/CoinBox.sol\":574:593  msg.sender == owner */\n      0xffffffffffffffffffffffffffffffffffffffff\n      and\n        /* \"Coin Box/CoinBox.sol\":574:584  msg.sender */\n      caller\n        /* \"Coin Box/CoinBox.sol\":574:593  msg.sender == owner */\n      0xffffffffffffffffffffffffffffffffffffffff\n      and\n      eq\n        /* \"Coin Box/CoinBox.sol\":566:622  require(msg.sender == owner, \"Withdrawer must be owner\") */\n      tag_32\n      jumpi\n      mload(0x40)\n      0x08c379a000000000000000000000000000000000000000000000000000000000\n      dup2\n      mstore\n      0x04\n      add\n      tag_33\n      swap1\n      tag_34\n      jump\t// in\n    tag_33:\n      mload(0x40)\n      dup1\n      swap2\n      sub\n      swap1\n      revert\n    tag_32:\n        /* \"Coin Box/CoinBox.sol\":660:670  unlockTime */\n      sload(0x01)\n        /* \"Coin Box/CoinBox.sol\":641:656  block.timestamp */\n      timestamp\n        /* \"Coin Box/CoinBox.sol\":641:670  block.timestamp >= unlockTime */\n      lt\n      iszero\n        /* \"Coin Box/CoinBox.sol\":633:693  require(block.timestamp >= unlockTime, \"It's not time yet!\") */\n      tag_35\n      jumpi\n      mload(0x40)\n      0x08c379a000000000000000000000000000000000000000000000000000000000\n      dup2\n      mstore\n      0x04\n      add\n      tag_36\n      swap1\n      tag_37\n      jump\t// in\n    tag_36:\n      mload(0x40)\n      dup1\n      swap2\n      sub\n      swap1\n      revert\n    tag_35:\n        /* \"Coin Box/CoinBox.sol\":723:724  0 */\n      0x00\n        /* \"Coin Box/CoinBox.sol\":712:719  balance */\n      sload(0x02)\n        /* \"Coin Box/CoinBox.sol\":712:724  balance >= 0 */\n      lt\n      iszero\n        /* \"Coin Box/CoinBox.sol\":704:725  require(balance >= 0) */\n      tag_38\n      jumpi\n      0x00\n      dup1\n      revert\n    tag_38:\n        /* \"Coin Box/CoinBox.sol\":736:750  uint256 amount */\n      0x00\n        /* \"Coin Box/CoinBox.sol\":753:760  balance */\n      sload(0x02)\n        /* \"Coin Box/CoinBox.sol\":736:760  uint256 amount = balance */\n      swap1\n      pop\n        /* \"Coin Box/CoinBox.sol\":781:782  0 */\n      0x00\n        /* \"Coin Box/CoinBox.sol\":771:778  balance */\n      0x02\n        /* \"Coin Box/CoinBox.sol\":771:782  balance = 0 */\n      dup2\n      swap1\n      sstore\n      pop\n        /* \"Coin Box/CoinBox.sol\":801:806  owner */\n      0x00\n      dup1\n      sload\n      swap1\n      0x0100\n      exp\n      swap1\n      div\n      0xffffffffffffffffffffffffffffffffffffffff\n      and\n        /* \"Coin Box/CoinBox.sol\":793:816  payable(owner).transfer */\n      0xffffffffffffffffffffffffffffffffffffffff\n      and\n        /* \"Coin Box/CoinBox.sol\":793:824  payable(owner).transfer(amount) */\n      0x08fc\n        /* \"Coin Box/CoinBox.sol\":817:823  amount */\n      dup3\n        /* \"Coin Box/CoinBox.sol\":793:824  payable(owner).transfer(amount) */\n      swap1\n      dup2\n      iszero\n      mul\n      swap1\n      mload(0x40)\n      0x00\n      mload(0x40)\n      dup1\n      dup4\n      sub\n      dup2\n      dup6\n      dup9\n      dup9\n      call\n      swap4\n      pop\n      pop\n      pop\n      pop\n      iszero\n      dup1\n      iszero\n      tag_40\n      jumpi\n      returndatasize\n      0x00\n      dup1\n      returndatacopy\n      revert(0x00, returndatasize)\n    tag_40:\n      pop\n        /* \"Coin Box/CoinBox.sol\":555:832  {... */\n      pop\n        /* \"Coin Box/CoinBox.sol\":525:832  function withdraw () external {... */\n      jump\t// out\n        /* \"Coin Box/CoinBox.sol\":83:103  address public owner */\n    tag_18:\n      0x00\n      dup1\n      sload\n      swap1\n      0x0100\n      exp\n      swap1\n      div\n      0xffffffffffffffffffffffffffffffffffffffff\n      and\n      dup2\n      jump\t// out\n        /* \"Coin Box/CoinBox.sol\":142:164  uint256 public balance */\n    tag_23:\n      sload(0x02)\n      dup2\n      jump\t// out\n        /* \"Coin Box/CoinBox.sol\":839:1034  function getTimeLeft () external view returns (uint256) {... */\n    tag_27:\n        /* \"Coin Box/CoinBox.sol\":886:893  uint256 */\n      0x00\n        /* \"Coin Box/CoinBox.sol\":929:939  unlockTime */\n      sload(0x01)\n        /* \"Coin Box/CoinBox.sol\":910:925  block.timestamp */\n      timestamp\n        /* \"Coin Box/CoinBox.sol\":910:939  block.timestamp >= unlockTime */\n      lt\n        /* \"Coin Box/CoinBox.sol\":906:1026  if (block.timestamp >= unlockTime)... */\n      tag_42\n      jumpi\n        /* \"Coin Box/CoinBox.sol\":961:962  0 */\n      0x00\n        /* \"Coin Box/CoinBox.sol\":954:962  return 0 */\n      swap1\n      pop\n      jump(tag_41)\n        /* \"Coin Box/CoinBox.sol\":906:1026  if (block.timestamp >= unlockTime)... */\n    tag_42:\n        /* \"Coin Box/CoinBox.sol\":1011:1026  block.timestamp */\n      timestamp\n        /* \"Coin Box/CoinBox.sol\":998:1008  unlockTime */\n      sload(0x01)\n        /* \"Coin Box/CoinBox.sol\":998:1026  unlockTime - block.timestamp */\n      tag_44\n      swap2\n      swap1\n      tag_45\n      jump\t// in\n    tag_44:\n        /* \"Coin Box/CoinBox.sol\":991:1026  return unlockTime - block.timestamp */\n      swap1\n      pop\n        /* \"Coin Box/CoinBox.sol\":839:1034  function getTimeLeft () external view returns (uint256) {... */\n    tag_41:\n      swap1\n      jump\t// out\n        /* \"Coin Box/CoinBox.sol\":368:516  function deposit () external payable {... */\n    tag_30:\n        /* \"Coin Box/CoinBox.sol\":436:437  0 */\n      0x00\n        /* \"Coin Box/CoinBox.sol\":424:433  msg.value */\n      callvalue\n        /* \"Coin Box/CoinBox.sol\":424:437  msg.value > 0 */\n      gt\n        /* \"Coin Box/CoinBox.sol\":416:477  require(msg.value > 0, \"Deposit value must be grater then 0\") */\n      tag_47\n      jumpi\n      mload(0x40)\n      0x08c379a000000000000000000000000000000000000000000000000000000000\n      dup2\n      mstore\n      0x04\n      add\n      tag_48\n      swap1\n      tag_49\n      jump\t// in\n    tag_48:\n      mload(0x40)\n      dup1\n      swap2\n      sub\n      swap1\n      revert\n    tag_47:\n        /* \"Coin Box/CoinBox.sol\":499:508  msg.value */\n      callvalue\n        /* \"Coin Box/CoinBox.sol\":488:495  balance */\n      0x02\n      0x00\n        /* \"Coin Box/CoinBox.sol\":488:508  balance += msg.value */\n      dup3\n      dup3\n      sload\n      tag_50\n      swap2\n      swap1\n      tag_51\n      jump\t// in\n    tag_50:\n      swap3\n      pop\n      pop\n      dup2\n      swap1\n      sstore\n      pop\n        /* \"Coin Box/CoinBox.sol\":368:516  function deposit () external payable {... */\n      jump\t// out\n        /* \"#utility.yul\":7:84   */\n    tag_52:\n        /* \"#utility.yul\":44:51   */\n      0x00\n        /* \"#utility.yul\":73:78   */\n      dup2\n        /* \"#utility.yul\":62:78   */\n      swap1\n      pop\n        /* \"#utility.yul\":7:84   */\n      swap2\n      swap1\n      pop\n      jump\t// out\n        /* \"#utility.yul\":90:208   */\n    tag_53:\n        /* \"#utility.yul\":177:201   */\n      tag_68\n        /* \"#utility.yul\":195:200   */\n      dup2\n        /* \"#utility.yul\":177:201   */\n      tag_52\n      jump\t// in\n    tag_68:\n        /* \"#utility.yul\":172:175   */\n      dup3\n        /* \"#utility.yul\":165:202   */\n      mstore\n        /* \"#utility.yul\":90:208   */\n      pop\n      pop\n      jump\t// out\n        /* \"#utility.yul\":214:436   */\n    tag_12:\n        /* \"#utility.yul\":307:311   */\n      0x00\n        /* \"#utility.yul\":345:347   */\n      0x20\n        /* \"#utility.yul\":334:343   */\n      dup3\n        /* \"#utility.yul\":330:348   */\n      add\n        /* \"#utility.yul\":322:348   */\n      swap1\n      pop\n        /* \"#utility.yul\":358:429   */\n      tag_70\n        /* \"#utility.yul\":426:427   */\n      0x00\n        /* \"#utility.yul\":415:424   */\n      dup4\n        /* \"#utility.yul\":411:428   */\n      add\n        /* \"#utility.yul\":402:408   */\n      dup5\n        /* \"#utility.yul\":358:429   */\n      tag_53\n      jump\t// in\n    tag_70:\n        /* \"#utility.yul\":214:436   */\n      swap3\n      swap2\n      pop\n      pop\n      jump\t// out\n        /* \"#utility.yul\":442:568   */\n    tag_54:\n        /* \"#utility.yul\":479:486   */\n      0x00\n        /* \"#utility.yul\":519:561   */\n      0xffffffffffffffffffffffffffffffffffffffff\n        /* \"#utility.yul\":512:517   */\n      dup3\n        /* \"#utility.yul\":508:562   */\n      and\n        /* \"#utility.yul\":497:562   */\n      swap1\n      pop\n        /* \"#utility.yul\":442:568   */\n      swap2\n      swap1\n      pop\n      jump\t// out\n        /* \"#utility.yul\":574:670   */\n    tag_55:\n        /* \"#utility.yul\":611:618   */\n      0x00\n        /* \"#utility.yul\":640:664   */\n      tag_73\n        /* \"#utility.yul\":658:663   */\n      dup3\n        /* \"#utility.yul\":640:664   */\n      tag_54\n      jump\t// in\n    tag_73:\n        /* \"#utility.yul\":629:664   */\n      swap1\n      pop\n        /* \"#utility.yul\":574:670   */\n      swap2\n      swap1\n      pop\n      jump\t// out\n        /* \"#utility.yul\":676:794   */\n    tag_56:\n        /* \"#utility.yul\":763:787   */\n      tag_75\n        /* \"#utility.yul\":781:786   */\n      dup2\n        /* \"#utility.yul\":763:787   */\n      tag_55\n      jump\t// in\n    tag_75:\n        /* \"#utility.yul\":758:761   */\n      dup3\n        /* \"#utility.yul\":751:788   */\n      mstore\n        /* \"#utility.yul\":676:794   */\n      pop\n      pop\n      jump\t// out\n        /* \"#utility.yul\":800:1022   */\n    tag_20:\n        /* \"#utility.yul\":893:897   */\n      0x00\n        /* \"#utility.yul\":931:933   */\n      0x20\n        /* \"#utility.yul\":920:929   */\n      dup3\n        /* \"#utility.yul\":916:934   */\n      add\n        /* \"#utility.yul\":908:934   */\n      swap1\n      pop\n        /* \"#utility.yul\":944:1015   */\n      tag_77\n        /* \"#utility.yul\":1012:1013   */\n      0x00\n        /* \"#utility.yul\":1001:1010   */\n      dup4\n        /* \"#utility.yul\":997:1014   */\n      add\n        /* \"#utility.yul\":988:994   */\n      dup5\n        /* \"#utility.yul\":944:1015   */\n      tag_56\n      jump\t// in\n    tag_77:\n        /* \"#utility.yul\":800:1022   */\n      swap3\n      swap2\n      pop\n      pop\n      jump\t// out\n        /* \"#utility.yul\":1028:1197   */\n    tag_57:\n        /* \"#utility.yul\":1112:1123   */\n      0x00\n        /* \"#utility.yul\":1146:1152   */\n      dup3\n        /* \"#utility.yul\":1141:1144   */\n      dup3\n        /* \"#utility.yul\":1134:1153   */\n      mstore\n        /* \"#utility.yul\":1186:1190   */\n      0x20\n        /* \"#utility.yul\":1181:1184   */\n      dup3\n        /* \"#utility.yul\":1177:1191   */\n      add\n        /* \"#utility.yul\":1162:1191   */\n      swap1\n      pop\n        /* \"#utility.yul\":1028:1197   */\n      swap3\n      swap2\n      pop\n      pop\n      jump\t// out\n        /* \"#utility.yul\":1203:1377   */\n    tag_58:\n        /* \"#utility.yul\":1343:1369   */\n      0x57697468647261776572206d757374206265206f776e65720000000000000000\n        /* \"#utility.yul\":1339:1340   */\n      0x00\n        /* \"#utility.yul\":1331:1337   */\n      dup3\n        /* \"#utility.yul\":1327:1341   */\n      add\n        /* \"#utility.yul\":1320:1370   */\n      mstore\n        /* \"#utility.yul\":1203:1377   */\n      pop\n      jump\t// out\n        /* \"#utility.yul\":1383:1749   */\n    tag_59:\n        /* \"#utility.yul\":1525:1528   */\n      0x00\n        /* \"#utility.yul\":1546:1613   */\n      tag_81\n        /* \"#utility.yul\":1610:1612   */\n      0x18\n        /* \"#utility.yul\":1605:1608   */\n      dup4\n        /* \"#utility.yul\":1546:1613   */\n      tag_57\n      jump\t// in\n    tag_81:\n        /* \"#utility.yul\":1539:1613   */\n      swap2\n      pop\n        /* \"#utility.yul\":1622:1715   */\n      tag_82\n        /* \"#utility.yul\":1711:1714   */\n      dup3\n        /* \"#utility.yul\":1622:1715   */\n      tag_58\n      jump\t// in\n    tag_82:\n        /* \"#utility.yul\":1740:1742   */\n      0x20\n        /* \"#utility.yul\":1735:1738   */\n      dup3\n        /* \"#utility.yul\":1731:1743   */\n      add\n        /* \"#utility.yul\":1724:1743   */\n      swap1\n      pop\n        /* \"#utility.yul\":1383:1749   */\n      swap2\n      swap1\n      pop\n      jump\t// out\n        /* \"#utility.yul\":1755:2174   */\n    tag_34:\n        /* \"#utility.yul\":1921:1925   */\n      0x00\n        /* \"#utility.yul\":1959:1961   */\n      0x20\n        /* \"#utility.yul\":1948:1957   */\n      dup3\n        /* \"#utility.yul\":1944:1962   */\n      add\n        /* \"#utility.yul\":1936:1962   */\n      swap1\n      pop\n        /* \"#utility.yul\":2008:2017   */\n      dup2\n        /* \"#utility.yul\":2002:2006   */\n      dup2\n        /* \"#utility.yul\":1998:2018   */\n      sub\n        /* \"#utility.yul\":1994:1995   */\n      0x00\n        /* \"#utility.yul\":1983:1992   */\n      dup4\n        /* \"#utility.yul\":1979:1996   */\n      add\n        /* \"#utility.yul\":1972:2019   */\n      mstore\n        /* \"#utility.yul\":2036:2167   */\n      tag_84\n        /* \"#utility.yul\":2162:2166   */\n      dup2\n        /* \"#utility.yul\":2036:2167   */\n      tag_59\n      jump\t// in\n    tag_84:\n        /* \"#utility.yul\":2028:2167   */\n      swap1\n      pop\n        /* \"#utility.yul\":1755:2174   */\n      swap2\n      swap1\n      pop\n      jump\t// out\n        /* \"#utility.yul\":2180:2348   */\n    tag_60:\n        /* \"#utility.yul\":2320:2340   */\n      0x49742773206e6f742074696d6520796574210000000000000000000000000000\n        /* \"#utility.yul\":2316:2317   */\n      0x00\n        /* \"#utility.yul\":2308:2314   */\n      dup3\n        /* \"#utility.yul\":2304:2318   */\n      add\n        /* \"#utility.yul\":2297:2341   */\n      mstore\n        /* \"#utility.yul\":2180:2348   */\n      pop\n      jump\t// out\n        /* \"#utility.yul\":2354:2720   */\n    tag_61:\n        /* \"#utility.yul\":2496:2499   */\n      0x00\n        /* \"#utility.yul\":2517:2584   */\n      tag_87\n        /* \"#utility.yul\":2581:2583   */\n      0x12\n        /* \"#utility.yul\":2576:2579   */\n      dup4\n        /* \"#utility.yul\":2517:2584   */\n      tag_57\n      jump\t// in\n    tag_87:\n        /* \"#utility.yul\":2510:2584   */\n      swap2\n      pop\n        /* \"#utility.yul\":2593:2686   */\n      tag_88\n        /* \"#utility.yul\":2682:2685   */\n      dup3\n        /* \"#utility.yul\":2593:2686   */\n      tag_60\n      jump\t// in\n    tag_88:\n        /* \"#utility.yul\":2711:2713   */\n      0x20\n        /* \"#utility.yul\":2706:2709   */\n      dup3\n        /* \"#utility.yul\":2702:2714   */\n      add\n        /* \"#utility.yul\":2695:2714   */\n      swap1\n      pop\n        /* \"#utility.yul\":2354:2720   */\n      swap2\n      swap1\n      pop\n      jump\t// out\n        /* \"#utility.yul\":2726:3145   */\n    tag_37:\n        /* \"#utility.yul\":2892:2896   */\n      0x00\n        /* \"#utility.yul\":2930:2932   */\n      0x20\n        /* \"#utility.yul\":2919:2928   */\n      dup3\n        /* \"#utility.yul\":2915:2933   */\n      add\n        /* \"#utility.yul\":2907:2933   */\n      swap1\n      pop\n        /* \"#utility.yul\":2979:2988   */\n      dup2\n        /* \"#utility.yul\":2973:2977   */\n      dup2\n        /* \"#utility.yul\":2969:2989   */\n      sub\n        /* \"#utility.yul\":2965:2966   */\n      0x00\n        /* \"#utility.yul\":2954:2963   */\n      dup4\n        /* \"#utility.yul\":2950:2967   */\n      add\n        /* \"#utility.yul\":2943:2990   */\n      mstore\n        /* \"#utility.yul\":3007:3138   */\n      tag_90\n        /* \"#utility.yul\":3133:3137   */\n      dup2\n        /* \"#utility.yul\":3007:3138   */\n      tag_61\n      jump\t// in\n    tag_90:\n        /* \"#utility.yul\":2999:3138   */\n      swap1\n      pop\n        /* \"#utility.yul\":2726:3145   */\n      swap2\n      swap1\n      pop\n      jump\t// out\n        /* \"#utility.yul\":3151:3331   */\n    tag_62:\n        /* \"#utility.yul\":3199:3276   */\n      0x4e487b7100000000000000000000000000000000000000000000000000000000\n        /* \"#utility.yul\":3196:3197   */\n      0x00\n        /* \"#utility.yul\":3189:3277   */\n      mstore\n        /* \"#utility.yul\":3296:3300   */\n      0x11\n        /* \"#utility.yul\":3293:3294   */\n      0x04\n        /* \"#utility.yul\":3286:3301   */\n      mstore\n        /* \"#utility.yul\":3320:3324   */\n      0x24\n        /* \"#utility.yul\":3317:3318   */\n      0x00\n        /* \"#utility.yul\":3310:3325   */\n      revert\n        /* \"#utility.yul\":3337:3531   */\n    tag_45:\n        /* \"#utility.yul\":3377:3381   */\n      0x00\n        /* \"#utility.yul\":3397:3417   */\n      tag_93\n        /* \"#utility.yul\":3415:3416   */\n      dup3\n        /* \"#utility.yul\":3397:3417   */\n      tag_52\n      jump\t// in\n    tag_93:\n        /* \"#utility.yul\":3392:3417   */\n      swap2\n      pop\n        /* \"#utility.yul\":3431:3451   */\n      tag_94\n        /* \"#utility.yul\":3449:3450   */\n      dup4\n        /* \"#utility.yul\":3431:3451   */\n      tag_52\n      jump\t// in\n    tag_94:\n        /* \"#utility.yul\":3426:3451   */\n      swap3\n      pop\n        /* \"#utility.yul\":3475:3476   */\n      dup3\n        /* \"#utility.yul\":3472:3473   */\n      dup3\n        /* \"#utility.yul\":3468:3477   */\n      sub\n        /* \"#utility.yul\":3460:3477   */\n      swap1\n      pop\n        /* \"#utility.yul\":3499:3500   */\n      dup2\n        /* \"#utility.yul\":3493:3497   */\n      dup2\n        /* \"#utility.yul\":3490:3501   */\n      gt\n        /* \"#utility.yul\":3487:3524   */\n      iszero\n      tag_95\n      jumpi\n        /* \"#utility.yul\":3504:3522   */\n      tag_96\n      tag_62\n      jump\t// in\n    tag_96:\n        /* \"#utility.yul\":3487:3524   */\n    tag_95:\n        /* \"#utility.yul\":3337:3531   */\n      swap3\n      swap2\n      pop\n      pop\n      jump\t// out\n        /* \"#utility.yul\":3537:3759   */\n    tag_63:\n        /* \"#utility.yul\":3677:3711   */\n      0x4465706f7369742076616c7565206d7573742062652067726174657220746865\n        /* \"#utility.yul\":3673:3674   */\n      0x00\n        /* \"#utility.yul\":3665:3671   */\n      dup3\n        /* \"#utility.yul\":3661:3675   */\n      add\n        /* \"#utility.yul\":3654:3712   */\n      mstore\n        /* \"#utility.yul\":3746:3751   */\n      0x6e20300000000000000000000000000000000000000000000000000000000000\n        /* \"#utility.yul\":3741:3743   */\n      0x20\n        /* \"#utility.yul\":3733:3739   */\n      dup3\n        /* \"#utility.yul\":3729:3744   */\n      add\n        /* \"#utility.yul\":3722:3752   */\n      mstore\n        /* \"#utility.yul\":3537:3759   */\n      pop\n      jump\t// out\n        /* \"#utility.yul\":3765:4131   */\n    tag_64:\n        /* \"#utility.yul\":3907:3910   */\n      0x00\n        /* \"#utility.yul\":3928:3995   */\n      tag_99\n        /* \"#utility.yul\":3992:3994   */\n      0x23\n        /* \"#utility.yul\":3987:3990   */\n      dup4\n        /* \"#utility.yul\":3928:3995   */\n      tag_57\n      jump\t// in\n    tag_99:\n        /* \"#utility.yul\":3921:3995   */\n      swap2\n      pop\n        /* \"#utility.yul\":4004:4097   */\n      tag_100\n        /* \"#utility.yul\":4093:4096   */\n      dup3\n        /* \"#utility.yul\":4004:4097   */\n      tag_63\n      jump\t// in\n    tag_100:\n        /* \"#utility.yul\":4122:4124   */\n      0x40\n        /* \"#utility.yul\":4117:4120   */\n      dup3\n        /* \"#utility.yul\":4113:4125   */\n      add\n        /* \"#utility.yul\":4106:4125   */\n      swap1\n      pop\n        /* \"#utility.yul\":3765:4131   */\n      swap2\n      swap1\n      pop\n      jump\t// out\n        /* \"#utility.yul\":4137:4556   */\n    tag_49:\n        /* \"#utility.yul\":4303:4307   */\n      0x00\n        /* \"#utility.yul\":4341:4343   */\n      0x20\n        /* \"#utility.yul\":4330:4339   */\n      dup3\n        /* \"#utility.yul\":4326:4344   */\n      add\n        /* \"#utility.yul\":4318:4344   */\n      swap1\n      pop\n        /* \"#utility.yul\":4390:4399   */\n      dup2\n        /* \"#utility.yul\":4384:4388   */\n      dup2\n        /* \"#utility.yul\":4380:4400   */\n      sub\n        /* \"#utility.yul\":4376:4377   */\n      0x00\n        /* \"#utility.yul\":4365:4374   */\n      dup4\n        /* \"#utility.yul\":4361:4378   */\n      add\n        /* \"#utility.yul\":4354:4401   */\n      mstore\n        /* \"#utility.yul\":4418:4549   */\n      tag_102\n        /* \"#utility.yul\":4544:4548   */\n      dup2\n        /* \"#utility.yul\":4418:4549   */\n      tag_64\n      jump\t// in\n    tag_102:\n        /* \"#utility.yul\":4410:4549   */\n      swap1\n      pop\n        /* \"#utility.yul\":4137:4556   */\n      swap2\n      swap1\n      pop\n      jump\t// out\n        /* \"#utility.yul\":4562:4753   */\n    tag_51:\n        /* \"#utility.yul\":4602:4605   */\n      0x00\n        /* \"#utility.yul\":4621:4641   */\n      tag_104\n        /* \"#utility.yul\":4639:4640   */\n      dup3\n        /* \"#utility.yul\":4621:4641   */\n      tag_52\n      jump\t// in\n    tag_104:\n        /* \"#utility.yul\":4616:4641   */\n      swap2\n      pop\n        /* \"#utility.yul\":4655:4675   */\n      tag_105\n        /* \"#utility.yul\":4673:4674   */\n      dup4\n        /* \"#utility.yul\":4655:4675   */\n      tag_52\n      jump\t// in\n    tag_105:\n        /* \"#utility.yul\":4650:4675   */\n      swap3\n      pop\n        /* \"#utility.yul\":4698:4699   */\n      dup3\n        /* \"#utility.yul\":4695:4696   */\n      dup3\n        /* \"#utility.yul\":4691:4700   */\n      add\n        /* \"#utility.yul\":4684:4700   */\n      swap1\n      pop\n        /* \"#utility.yul\":4719:4722   */\n      dup1\n        /* \"#utility.yul\":4716:4717   */\n      dup3\n        /* \"#utility.yul\":4713:4723   */\n      gt\n        /* \"#utility.yul\":4710:4746   */\n      iszero\n      tag_106\n      jumpi\n        /* \"#utility.yul\":4726:4744   */\n      tag_107\n      tag_62\n      jump\t// in\n    tag_107:\n        /* \"#utility.yul\":4710:4746   */\n    tag_106:\n        /* \"#utility.yul\":4562:4753   */\n      swap3\n      swap2\n      pop\n      pop\n      jump\t// out\n\n    auxdata: 0xa26469706673582212208a09ce65e3bcf328c30d55ea62acf4c13b690c4bdc7444362fedc55c5f65fd9064736f6c634300081a0033\n}\n",
				"bytecode": {
					"linkReferences": {},
					"object": "608060405234801561000f575f80fd5b5060405161078a38038061078a833981810160405281019061003191906100f6565b428111610073576040517f08c379a000000000000000000000000000000000000000000000000000000000815260040161006a9061017b565b60405180910390fd5b335f806101000a81548173ffffffffffffffffffffffffffffffffffffffff021916908373ffffffffffffffffffffffffffffffffffffffff1602179055508060018190555050610199565b5f80fd5b5f819050919050565b6100d5816100c3565b81146100df575f80fd5b50565b5f815190506100f0816100cc565b92915050565b5f6020828403121561010b5761010a6100bf565b5b5f610118848285016100e2565b91505092915050565b5f82825260208201905092915050565b7f556e6c6f636b2074696d65206d75737420626520696e206675747572650000005f82015250565b5f610165601d83610121565b915061017082610131565b602082019050919050565b5f6020820190508181035f83015261019281610159565b9050919050565b6105e4806101a65f395ff3fe608060405260043610610054575f3560e01c8063251c1aa3146100585780633ccfd60b146100825780638da5cb5b14610098578063b69ef8a8146100c2578063c7e284b8146100ec578063d0e30db014610116575b5f80fd5b348015610063575f80fd5b5061006c610120565b604051610079919061033c565b60405180910390f35b34801561008d575f80fd5b50610096610126565b005b3480156100a3575f80fd5b506100ac610279565b6040516100b99190610394565b60405180910390f35b3480156100cd575f80fd5b506100d661029c565b6040516100e3919061033c565b60405180910390f35b3480156100f7575f80fd5b506101006102a2565b60405161010d919061033c565b60405180910390f35b61011e6102c8565b005b60015481565b5f8054906101000a900473ffffffffffffffffffffffffffffffffffffffff1673ffffffffffffffffffffffffffffffffffffffff163373ffffffffffffffffffffffffffffffffffffffff16146101b3576040517f08c379a00000000000000000000000000000000000000000000000000000000081526004016101aa90610407565b60405180910390fd5b6001544210156101f8576040517f08c379a00000000000000000000000000000000000000000000000000000000081526004016101ef9061046f565b60405180910390fd5b5f6002541015610206575f80fd5b5f60025490505f6002819055505f8054906101000a900473ffffffffffffffffffffffffffffffffffffffff1673ffffffffffffffffffffffffffffffffffffffff166108fc8290811502906040515f60405180830381858888f19350505050158015610275573d5f803e3d5ffd5b5050565b5f8054906101000a900473ffffffffffffffffffffffffffffffffffffffff1681565b60025481565b5f60015442106102b4575f90506102c5565b426001546102c291906104ba565b90505b90565b5f341161030a576040517f08c379a00000000000000000000000000000000000000000000000000000000081526004016103019061055d565b60405180910390fd5b3460025f82825461031b919061057b565b92505081905550565b5f819050919050565b61033681610324565b82525050565b5f60208201905061034f5f83018461032d565b92915050565b5f73ffffffffffffffffffffffffffffffffffffffff82169050919050565b5f61037e82610355565b9050919050565b61038e81610374565b82525050565b5f6020820190506103a75f830184610385565b92915050565b5f82825260208201905092915050565b7f57697468647261776572206d757374206265206f776e657200000000000000005f82015250565b5f6103f16018836103ad565b91506103fc826103bd565b602082019050919050565b5f6020820190508181035f83015261041e816103e5565b9050919050565b7f49742773206e6f742074696d65207965742100000000000000000000000000005f82015250565b5f6104596012836103ad565b915061046482610425565b602082019050919050565b5f6020820190508181035f8301526104868161044d565b9050919050565b7f4e487b71000000000000000000000000000000000000000000000000000000005f52601160045260245ffd5b5f6104c482610324565b91506104cf83610324565b92508282039050818111156104e7576104e661048d565b5b92915050565b7f4465706f7369742076616c7565206d75737420626520677261746572207468655f8201527f6e20300000000000000000000000000000000000000000000000000000000000602082015250565b5f6105476023836103ad565b9150610552826104ed565b604082019050919050565b5f6020820190508181035f8301526105748161053b565b9050919050565b5f61058582610324565b915061059083610324565b92508282019050808211156105a8576105a761048d565b5b9291505056fea26469706673582212208a09ce65e3bcf328c30d55ea62acf4c13b690c4bdc7444362fedc55c5f65fd9064736f6c634300081a0033",
					"opcodes": "PUSH1 0x80 PUSH1 0x40 MSTORE CALLVALUE DUP1 ISZERO PUSH2 0xF JUMPI PUSH0 DUP1 REVERT JUMPDEST POP PUSH1 0x40 MLOAD PUSH2 0x78A CODESIZE SUB DUP1 PUSH2 0x78A DUP4 CODECOPY DUP2 DUP2 ADD PUSH1 0x40 MSTORE DUP2 ADD SWAP1 PUSH2 0x31 SWAP2 SWAP1 PUSH2 0xF6 JUMP JUMPDEST TIMESTAMP DUP2 GT PUSH2 0x73 JUMPI PUSH1 0x40 MLOAD PUSH32 0x8C379A000000000000000000000000000000000000000000000000000000000 DUP2 MSTORE PUSH1 0x4 ADD PUSH2 0x6A SWAP1 PUSH2 0x17B JUMP JUMPDEST PUSH1 0x40 MLOAD DUP1 SWAP2 SUB SWAP1 REVERT JUMPDEST CALLER PUSH0 DUP1 PUSH2 0x100 EXP DUP2 SLOAD DUP2 PUSH20 0xFFFFFFFFFFFFFFFFFFFFFFFFFFFFFFFFFFFFFFFF MUL NOT AND SWAP1 DUP4 PUSH20 0xFFFFFFFFFFFFFFFFFFFFFFFFFFFFFFFFFFFFFFFF AND MUL OR SWAP1 SSTORE POP DUP1 PUSH1 0x1 DUP2 SWAP1 SSTORE POP POP PUSH2 0x199 JUMP JUMPDEST PUSH0 DUP1 REVERT JUMPDEST PUSH0 DUP2 SWAP1 POP SWAP2 SWAP1 POP JUMP JUMPDEST PUSH2 0xD5 DUP2 PUSH2 0xC3 JUMP JUMPDEST DUP2 EQ PUSH2 0xDF JUMPI PUSH0 DUP1 REVERT JUMPDEST POP JUMP JUMPDEST PUSH0 DUP2 MLOAD SWAP1 POP PUSH2 0xF0 DUP2 PUSH2 0xCC JUMP JUMPDEST SWAP3 SWAP2 POP POP JUMP JUMPDEST PUSH0 PUSH1 0x20 DUP3 DUP5 SUB SLT ISZERO PUSH2 0x10B JUMPI PUSH2 0x10A PUSH2 0xBF JUMP JUMPDEST JUMPDEST PUSH0 PUSH2 0x118 DUP5 DUP3 DUP6 ADD PUSH2 0xE2 JUMP JUMPDEST SWAP2 POP POP SWAP3 SWAP2 POP POP JUMP JUMPDEST PUSH0 DUP3 DUP3 MSTORE PUSH1 0x20 DUP3 ADD SWAP1 POP SWAP3 SWAP2 POP POP JUMP JUMPDEST PUSH32 0x556E6C6F636B2074696D65206D75737420626520696E20667574757265000000 PUSH0 DUP3 ADD MSTORE POP JUMP JUMPDEST PUSH0 PUSH2 0x165 PUSH1 0x1D DUP4 PUSH2 0x121 JUMP JUMPDEST SWAP2 POP PUSH2 0x170 DUP3 PUSH2 0x131 JUMP JUMPDEST PUSH1 0x20 DUP3 ADD SWAP1 POP SWAP2 SWAP1 POP JUMP JUMPDEST PUSH0 PUSH1 0x20 DUP3 ADD SWAP1 POP DUP2 DUP2 SUB PUSH0 DUP4 ADD MSTORE PUSH2 0x192 DUP2 PUSH2 0x159 JUMP JUMPDEST SWAP1 POP SWAP2 SWAP1 POP JUMP JUMPDEST PUSH2 0x5E4 DUP1 PUSH2 0x1A6 PUSH0 CODECOPY PUSH0 RETURN INVALID PUSH1 0x80 PUSH1 0x40 MSTORE PUSH1 0x4 CALLDATASIZE LT PUSH2 0x54 JUMPI PUSH0 CALLDATALOAD PUSH1 0xE0 SHR DUP1 PUSH4 0x251C1AA3 EQ PUSH2 0x58 JUMPI DUP1 PUSH4 0x3CCFD60B EQ PUSH2 0x82 JUMPI DUP1 PUSH4 0x8DA5CB5B EQ PUSH2 0x98 JUMPI DUP1 PUSH4 0xB69EF8A8 EQ PUSH2 0xC2 JUMPI DUP1 PUSH4 0xC7E284B8 EQ PUSH2 0xEC JUMPI DUP1 PUSH4 0xD0E30DB0 EQ PUSH2 0x116 JUMPI JUMPDEST PUSH0 DUP1 REVERT JUMPDEST CALLVALUE DUP1 ISZERO PUSH2 0x63 JUMPI PUSH0 DUP1 REVERT JUMPDEST POP PUSH2 0x6C PUSH2 0x120 JUMP JUMPDEST PUSH1 0x40 MLOAD PUSH2 0x79 SWAP2 SWAP1 PUSH2 0x33C JUMP JUMPDEST PUSH1 0x40 MLOAD DUP1 SWAP2 SUB SWAP1 RETURN JUMPDEST CALLVALUE DUP1 ISZERO PUSH2 0x8D JUMPI PUSH0 DUP1 REVERT JUMPDEST POP PUSH2 0x96 PUSH2 0x126 JUMP JUMPDEST STOP JUMPDEST CALLVALUE DUP1 ISZERO PUSH2 0xA3 JUMPI PUSH0 DUP1 REVERT JUMPDEST POP PUSH2 0xAC PUSH2 0x279 JUMP JUMPDEST PUSH1 0x40 MLOAD PUSH2 0xB9 SWAP2 SWAP1 PUSH2 0x394 JUMP JUMPDEST PUSH1 0x40 MLOAD DUP1 SWAP2 SUB SWAP1 RETURN JUMPDEST CALLVALUE DUP1 ISZERO PUSH2 0xCD JUMPI PUSH0 DUP1 REVERT JUMPDEST POP PUSH2 0xD6 PUSH2 0x29C JUMP JUMPDEST PUSH1 0x40 MLOAD PUSH2 0xE3 SWAP2 SWAP1 PUSH2 0x33C JUMP JUMPDEST PUSH1 0x40 MLOAD DUP1 SWAP2 SUB SWAP1 RETURN JUMPDEST CALLVALUE DUP1 ISZERO PUSH2 0xF7 JUMPI PUSH0 DUP1 REVERT JUMPDEST POP PUSH2 0x100 PUSH2 0x2A2 JUMP JUMPDEST PUSH1 0x40 MLOAD PUSH2 0x10D SWAP2 SWAP1 PUSH2 0x33C JUMP JUMPDEST PUSH1 0x40 MLOAD DUP1 SWAP2 SUB SWAP1 RETURN JUMPDEST PUSH2 0x11E PUSH2 0x2C8 JUMP JUMPDEST STOP JUMPDEST PUSH1 0x1 SLOAD DUP2 JUMP JUMPDEST PUSH0 DUP1 SLOAD SWAP1 PUSH2 0x100 EXP SWAP1 DIV PUSH20 0xFFFFFFFFFFFFFFFFFFFFFFFFFFFFFFFFFFFFFFFF AND PUSH20 0xFFFFFFFFFFFFFFFFFFFFFFFFFFFFFFFFFFFFFFFF AND CALLER PUSH20 0xFFFFFFFFFFFFFFFFFFFFFFFFFFFFFFFFFFFFFFFF AND EQ PUSH2 0x1B3 JUMPI PUSH1 0x40 MLOAD PUSH32 0x8C379A000000000000000000000000000000000000000000000000000000000 DUP2 MSTORE PUSH1 0x4 ADD PUSH2 0x1AA SWAP1 PUSH2 0x407 JUMP JUMPDEST PUSH1 0x40 MLOAD DUP1 SWAP2 SUB SWAP1 REVERT JUMPDEST PUSH1 0x1 SLOAD TIMESTAMP LT ISZERO PUSH2 0x1F8 JUMPI PUSH1 0x40 MLOAD PUSH32 0x8C379A000000000000000000000000000000000000000000000000000000000 DUP2 MSTORE PUSH1 0x4 ADD PUSH2 0x1EF SWAP1 PUSH2 0x46F JUMP JUMPDEST PUSH1 0x40 MLOAD DUP1 SWAP2 SUB SWAP1 REVERT JUMPDEST PUSH0 PUSH1 0x2 SLOAD LT ISZERO PUSH2 0x206 JUMPI PUSH0 DUP1 REVERT JUMPDEST PUSH0 PUSH1 0x2 SLOAD SWAP1 POP PUSH0 PUSH1 0x2 DUP2 SWAP1 SSTORE POP PUSH0 DUP1 SLOAD SWAP1 PUSH2 0x100 EXP SWAP1 DIV PUSH20 0xFFFFFFFFFFFFFFFFFFFFFFFFFFFFFFFFFFFFFFFF AND PUSH20 0xFFFFFFFFFFFFFFFFFFFFFFFFFFFFFFFFFFFFFFFF AND PUSH2 0x8FC DUP3 SWAP1 DUP2 ISZERO MUL SWAP1 PUSH1 0x40 MLOAD PUSH0 PUSH1 0x40 MLOAD DUP1 DUP4 SUB DUP2 DUP6 DUP9 DUP9 CALL SWAP4 POP POP POP POP ISZERO DUP1 ISZERO PUSH2 0x275 JUMPI RETURNDATASIZE PUSH0 DUP1 RETURNDATACOPY RETURNDATASIZE PUSH0 REVERT JUMPDEST POP POP JUMP JUMPDEST PUSH0 DUP1 SLOAD SWAP1 PUSH2 0x100 EXP SWAP1 DIV PUSH20 0xFFFFFFFFFFFFFFFFFFFFFFFFFFFFFFFFFFFFFFFF AND DUP2 JUMP JUMPDEST PUSH1 0x2 SLOAD DUP2 JUMP JUMPDEST PUSH0 PUSH1 0x1 SLOAD TIMESTAMP LT PUSH2 0x2B4 JUMPI PUSH0 SWAP1 POP PUSH2 0x2C5 JUMP JUMPDEST TIMESTAMP PUSH1 0x1 SLOAD PUSH2 0x2C2 SWAP2 SWAP1 PUSH2 0x4BA JUMP JUMPDEST SWAP1 POP JUMPDEST SWAP1 JUMP JUMPDEST PUSH0 CALLVALUE GT PUSH2 0x30A JUMPI PUSH1 0x40 MLOAD PUSH32 0x8C379A000000000000000000000000000000000000000000000000000000000 DUP2 MSTORE PUSH1 0x4 ADD PUSH2 0x301 SWAP1 PUSH2 0x55D JUMP JUMPDEST PUSH1 0x40 MLOAD DUP1 SWAP2 SUB SWAP1 REVERT JUMPDEST CALLVALUE PUSH1 0x2 PUSH0 DUP3 DUP3 SLOAD PUSH2 0x31B SWAP2 SWAP1 PUSH2 0x57B JUMP JUMPDEST SWAP3 POP POP DUP2 SWAP1 SSTORE POP JUMP JUMPDEST PUSH0 DUP2 SWAP1 POP SWAP2 SWAP1 POP JUMP JUMPDEST PUSH2 0x336 DUP2 PUSH2 0x324 JUMP JUMPDEST DUP3 MSTORE POP POP JUMP JUMPDEST PUSH0 PUSH1 0x20 DUP3 ADD SWAP1 POP PUSH2 0x34F PUSH0 DUP4 ADD DUP5 PUSH2 0x32D JUMP JUMPDEST SWAP3 SWAP2 POP POP JUMP JUMPDEST PUSH0 PUSH20 0xFFFFFFFFFFFFFFFFFFFFFFFFFFFFFFFFFFFFFFFF DUP3 AND SWAP1 POP SWAP2 SWAP1 POP JUMP JUMPDEST PUSH0 PUSH2 0x37E DUP3 PUSH2 0x355 JUMP JUMPDEST SWAP1 POP SWAP2 SWAP1 POP JUMP JUMPDEST PUSH2 0x38E DUP2 PUSH2 0x374 JUMP JUMPDEST DUP3 MSTORE POP POP JUMP JUMPDEST PUSH0 PUSH1 0x20 DUP3 ADD SWAP1 POP PUSH2 0x3A7 PUSH0 DUP4 ADD DUP5 PUSH2 0x385 JUMP JUMPDEST SWAP3 SWAP2 POP POP JUMP JUMPDEST PUSH0 DUP3 DUP3 MSTORE PUSH1 0x20 DUP3 ADD SWAP1 POP SWAP3 SWAP2 POP POP JUMP JUMPDEST PUSH32 0x57697468647261776572206D757374206265206F776E65720000000000000000 PUSH0 DUP3 ADD MSTORE POP JUMP JUMPDEST PUSH0 PUSH2 0x3F1 PUSH1 0x18 DUP4 PUSH2 0x3AD JUMP JUMPDEST SWAP2 POP PUSH2 0x3FC DUP3 PUSH2 0x3BD JUMP JUMPDEST PUSH1 0x20 DUP3 ADD SWAP1 POP SWAP2 SWAP1 POP JUMP JUMPDEST PUSH0 PUSH1 0x20 DUP3 ADD SWAP1 POP DUP2 DUP2 SUB PUSH0 DUP4 ADD MSTORE PUSH2 0x41E DUP2 PUSH2 0x3E5 JUMP JUMPDEST SWAP1 POP SWAP2 SWAP1 POP JUMP JUMPDEST PUSH32 0x49742773206E6F742074696D6520796574210000000000000000000000000000 PUSH0 DUP3 ADD MSTORE POP JUMP JUMPDEST PUSH0 PUSH2 0x459 PUSH1 0x12 DUP4 PUSH2 0x3AD JUMP JUMPDEST SWAP2 POP PUSH2 0x464 DUP3 PUSH2 0x425 JUMP JUMPDEST PUSH1 0x20 DUP3 ADD SWAP1 POP SWAP2 SWAP1 POP JUMP JUMPDEST PUSH0 PUSH1 0x20 DUP3 ADD SWAP1 POP DUP2 DUP2 SUB PUSH0 DUP4 ADD MSTORE PUSH2 0x486 DUP2 PUSH2 0x44D JUMP JUMPDEST SWAP1 POP SWAP2 SWAP1 POP JUMP JUMPDEST PUSH32 0x4E487B7100000000000000000000000000000000000000000000000000000000 PUSH0 MSTORE PUSH1 0x11 PUSH1 0x4 MSTORE PUSH1 0x24 PUSH0 REVERT JUMPDEST PUSH0 PUSH2 0x4C4 DUP3 PUSH2 0x324 JUMP JUMPDEST SWAP2 POP PUSH2 0x4CF DUP4 PUSH2 0x324 JUMP JUMPDEST SWAP3 POP DUP3 DUP3 SUB SWAP1 POP DUP2 DUP2 GT ISZERO PUSH2 0x4E7 JUMPI PUSH2 0x4E6 PUSH2 0x48D JUMP JUMPDEST JUMPDEST SWAP3 SWAP2 POP POP JUMP JUMPDEST PUSH32 0x4465706F7369742076616C7565206D7573742062652067726174657220746865 PUSH0 DUP3 ADD MSTORE PUSH32 0x6E20300000000000000000000000000000000000000000000000000000000000 PUSH1 0x20 DUP3 ADD MSTORE POP JUMP JUMPDEST PUSH0 PUSH2 0x547 PUSH1 0x23 DUP4 PUSH2 0x3AD JUMP JUMPDEST SWAP2 POP PUSH2 0x552 DUP3 PUSH2 0x4ED JUMP JUMPDEST PUSH1 0x40 DUP3 ADD SWAP1 POP SWAP2 SWAP1 POP JUMP JUMPDEST PUSH0 PUSH1 0x20 DUP3 ADD SWAP1 POP DUP2 DUP2 SUB PUSH0 DUP4 ADD MSTORE PUSH2 0x574 DUP2 PUSH2 0x53B JUMP JUMPDEST SWAP1 POP SWAP2 SWAP1 POP JUMP JUMPDEST PUSH0 PUSH2 0x585 DUP3 PUSH2 0x324 JUMP JUMPDEST SWAP2 POP PUSH2 0x590 DUP4 PUSH2 0x324 JUMP JUMPDEST SWAP3 POP DUP3 DUP3 ADD SWAP1 POP DUP1 DUP3 GT ISZERO PUSH2 0x5A8 JUMPI PUSH2 0x5A7 PUSH2 0x48D JUMP JUMPDEST JUMPDEST SWAP3 SWAP2 POP POP JUMP INVALID LOG2 PUSH5 0x6970667358 0x22 SLT KECCAK256 DUP11 MULMOD 0xCE PUSH6 0xE3BCF328C30D SSTORE 0xEA PUSH3 0xACF4C1 EXTCODESIZE PUSH10 0xC4BDC7444362FEDC55C PUSH0 PUSH6 0xFD9064736F6C PUSH4 0x4300081A STOP CALLER "
				},
				"gasEstimates": {
					"creation": {
						"codeDepositCost": "301600",
						"executionCost": "infinite",
						"totalCost": "infinite"
					},
					"external": {
						"balance()": "2469",
						"deposit()": "infinite",
						"getTimeLeft()": "infinite",
						"owner()": "2527",
						"unlockTime()": "2403",
						"withdraw()": "infinite"
					}
				},
				"methodIdentifiers": {
					"balance()": "b69ef8a8",
					"deposit()": "d0e30db0",
					"getTimeLeft()": "c7e284b8",
					"owner()": "8da5cb5b",
					"unlockTime()": "251c1aa3",
					"withdraw()": "3ccfd60b"
				}
			},
			"storageLayout": {
				"storage": [
					{
						"astId": 3,
						"contract": "Coin Box/CoinBox.sol:CoinBox",
						"label": "owner",
						"offset": 0,
						"slot": "0",
						"type": "t_address"
					},
					{
						"astId": 5,
						"contract": "Coin Box/CoinBox.sol:CoinBox",
						"label": "unlockTime",
						"offset": 0,
						"slot": "1",
						"type": "t_uint256"
					},
					{
						"astId": 7,
						"contract": "Coin Box/CoinBox.sol:CoinBox",
						"label": "balance",
						"offset": 0,
						"slot": "2",
						"type": "t_uint256"
					}
				],
				"types": {
					"t_address": {
						"encoding": "inplace",
						"label": "address",
						"numberOfBytes": "20"
					},
					"t_uint256": {
						"encoding": "inplace",
						"label": "uint256",
						"numberOfBytes": "32"
					}
				}
			},
			"userdoc": {
				"kind": "user",
				"methods": {},
				"version": 1
			}
		}
	}
}